:0400000038EF00F0E5
:0600080007823AED00F052
:100018000780D8CF03F0E8CF04F0E0CF05F0F29CDA
:10002800F0A019EF00F01BEF00F02FEF00F08ABCF2
:1000380020EF00F023EF00F0010E24EF00F0000E97
:10004800FF0A026E023A024602468A500218BF0BA5
:1000580002188A6EF090F28C05C0E0FF04C0E8FF39
:1000680003C0D8FF07901000B2EF00F00600F29E20
:10007800F2A241EF00F043EF00F056EF00F08ABE25
:1000880048EF00F04BEF00F0010E4CEF00F0000ECF
:10009800FF0A016E013201328A5001187F0B0118E4
:1000A8008A6EF292F2A45BEF00F05DEF00F080EF51
:1000B80000F0062AFA0E0618D8A465EF00F067EFDC
:1000C80000F07FEF00F0000E066E8ABA6EEF00F0C7
:1000D80071EF00F0010E72EF00F0000EFF0A016EE2
:1000E800013A01468A500118DF0B01188A6E000E8A
:1000F800D76E060ED66EF294F28E07921100700E2D
:10010800D312030ED312D3A48CEF00F08EEF00F0BD
:1001180087EF00F093809382939A939C939E8C9A96
:100128008C9C8C9ED08EF28CF28EF292F18CF2889E
:10013800F090F18AF09CF086D59E000ED76E060EE0
:10014800D66ED58CD59AD596D550F80B0209D56EB2
:10015800F28AD58EAEEF00F038EF00F0066A07900D
:080168000792000183EF00F093
:020000040020DA
:08000000FFFFFFFFFFFFFFFF00
:020000040030CA
:0E000000FF08191EFF0181FF0FC00FE00F4027
:00000001FF
