:020000040000FA
:0400000007EF00F016
:10000800028224ED00F047EF00F03DEC00F0000E16
:10001800896EFC0E9216070EB4120F0EC11295804F
:10002800D58E83A01AEF00F01CEF00F01FEF00F050
:10003800898015EF00F0899015EF00F007EF00F0C8
:100048000600F2A42AEF00F02CEF00F03BEF00F0DE
:10005800012AF2944C0E0118D8A435EF00F037EFBE
:1000680000F03BEF00F0000E016E020E891A0292BA
:100078001100D59ED59AD59CD586D09EF28EF28C4D
:10008800F294F28A1200016A02900292000109EFCA
:0200980000F076
:020000040020DA
:08000000FFFFFFFFFFFFFFFF00
:020000040030CA
:0E000000000C191EFF8385FF0FC00FE00F409C
:00000001FF
