:020000040000FA
:020000000A28CC
:10000800FE00030EF0000A08F1003D280B288301CA
:100018000D2883120313860101308316031386000B
:10002800850101130B100B168B178312031386140B
:1000380006110D30F400AF30F300B630F200F20BC9
:100048002328F30B2328F40B23280000831203131F
:10005800861006150D30F400AF30F300B630F2000C
:10006800F20B3428F30B3428F40B34280000192839
:100078000A288B1C4028412853280B12031083128E
:100088000313051C031403184A284E28831203136C
:10009800051451288312031305108B100B167108D1
:0C00A8008A00700E8300FE0E7E0E090020
:02400E003A3F37
:00000001FF
