:020000040000FA
:020000000B28CB
:10000800CE00030E83128D000A088E0010280C28DB
:100018008312900183013E280B1D132814282628DB
:1000280001308C000C0890070A301006031D1D28AB
:100038001E282328900101308C000C0886063C30CD
:1000480081000B110E088A000D0E8300CE0E4E0E95
:1000580009008B170B118B1683168112811101125F
:10006800073083128F000F0883168104C330831270
:10007800810008002D2083168601831286019001D5
:0400880044280B28D5
:02400E00F93F78
:00000001FF
