:020000040000FA
:040000002CEF00F0F1
:1000080006829EA00AEF00F00CEF00F02AEF00F045
:10001800014A022A9E903D0E01180210D8A417EF3B
:1000280000F019EF00F02AEF00F0000E026E000E4B
:10003800016E032A0328D8A424EF00F026EF00F06D
:1000480028EF00F0000E036E03C08CFF069211002B
:100058005CEF00F0000E8C6E000E836E000E8B6E4F
:10006800000E826E000E956E94904FEC00F066ECD8
:1000780000F0010E8B1A150E056E4B0E046EBE0EA7
:10008800E82EFED7042EFCD7052EFAD700D03DEF78
:1000980000F02CEF00F064EC00F09E90CD9ECD9C1B
:1000A800CD9ACD98CD96CD82F28EF28C9D8012009D
:1000B800036A026A016A0690069200012EEF00F0B8
:0800C800CD901200CD80120062
:08FFF800BEF7FCFFF3FBBFFBA9
:00000001FF
