:020000040000FA
:04000000A8EF07F06E
:100F46003F065B4F666D7D077F6F460EF66E0F0E92
:100F5600F76E000EF86E00EE01F010EE0AF00900D2
:100F6600F5CFEEFFE550E150FAE10D6A0001BCEF66
:100F760007F0000E816E000E936E9480070EC16E10
:100F8600010E0D24D96EDA6A000EDA22DF508A6E5F
:100F960082B0D0EF07F0D2EF07F0CBEF07F01A0ED2
:100FA6000B6EF80EE82EFED70B2EFCD700D0090EDE
:100FB6000D18D8B4E1EF07F0E3EF07F0E6EF07F01E
:100FC6000D2AE8EF07F0000E0D6E010E0D24D96E06
:100FD600DA6A000EDA22DF508A6E090E0C6E1E0ED9
:100FE6000B6EE40EE82EFED70B2EFCD70C2EFAD78E
:0A0FF60000D0CBEF07F000EF00F091
:020000040020DA
:08000000FFFFFFFFFFFFFFFF00
:020000040030CA
:0E000000FF820D1EFF8384FF0FC00FE00F4034
:00000001FF
