:020000040000FA
:020000000B28CB
:10000800CE00030E83128D000A088E0025290C28C5
:1000180083129101830110288B178B1530308316BA
:100028008600F8280614C7308F001A288F0B192865
:100038001D281E288312061019309000AB308F003F
:100048008F0B2428900B24282928F8280614DB3045
:100058008F002E288F0B2D28312832288312061066
:10006800193090008A308F008F0B3828900B382871
:100078000000F8280614EF308F0042288F0B412823
:1000880045284628831206101930900069308F00E1
:100098008F0B4C28900B4C28F8280614B9308F0089
:1000A800552856288F0B542859285A288312061089
:1000B8001930900047308F008F0B6028900B602814
:1000C8006528F8280614C7308F006A286B288F0B1C
:1000D80069286E286F28702883120610193090003E
:1000E80026308F008F0B7628900B76280000F82892
:1000F8000614D6308F00802881288F0B7F280000B7
:10010800831206101930900005308F008F0B8A2853
:10011800900B8A28F8280614E4308F009328942836
:100128008F0B922897280000831206101830900031
:10013800E4308F008F0B9E28900B9E280000F82833
:100148000614F2308F00A828A9288F0BA728AC28FE
:10015800AD2800008312061018309000C3308F00BD
:100168008F0BB428900BB428F8280614033090009D
:1001780055308F008F0BBE28900BBE2883120610B7
:1001880018309000A1308F008F0BC828900BC8281A
:10019800CD28F82806140330900076308F008F0B96
:1001A800D328900BD3280000831206101830900033
:1001B80080308F008F0BDE28900BDE280000F82897
:1001C80006140330900097308F008F0BE928900BAE
:1001D800E928EE2883120610183090005F308F004F
:1001E8008F0BF428900BF428831211088F009001CC
:1001F8001008003A03190129F8280F08013A0319D1
:100208001628033A03192A28013A03193E28073AFF
:1002180003195128013A03196628033A03197C285F
:10022800013A03198F280F3A0319A428013A031930
:10023800B928033A0319CE28013A0319E428F82803
:100248000B280B1C282929294429061E2C292D296D
:1002580038290B3011060319322933294329013073
:100268008C000C0891074329861E3B293C29432909
:1002780011080319402941294329013091020B1023
:0E0288000E088A000D0E8300CE0E4E0E0900E9
:02400E00F93F78
:00000001FF
