:020000040000FA
:060000000A128A110C280F
:10000800FE00030EF0000A08F1000A128A112828DF
:100018000A128A110F2883010A128A1113288312DF
:100028000313870101308316031387000A128A110C
:100038004C200A128A110A128A113C200A128A11CB
:1000480024280A128A110C28831203130C1D2D2848
:100058002E283528043087060C1100308F00013017
:100068008E0071088A00700E8300FE0E7E0E090055
:100078008312031317149714171197158316031374
:100088000C15003083120313960005309500080004
:100098008B170B17831203139014901500308F00E1
:0800A80001308E001014080065
:02400E00393F38
:00000001FF
