:020000040000FA
:04000000B5EF7FF0E9
:10FF6A000001B8EF7FF0000E8C6E000E836E000E5B
:10FF7A00956E010E8C6E010E8C6E000E036E030ED2
:10FF8A00026E080E016E770EE82EFED7012EFCD700
:10FF9A00022EFAD700F08C508C248C6E032A070E9E
:10FFAA000364DAEF7FF0DCEF7FF0C4EF7FF0800EBE
:10FFBA008C6E090E036E030E026E080E016E770E2A
:10FFCA00E82EFED7012EFCD7022EFAD700F0D890E1
:10FFDA008C308C6E0306020E0360F6EF7FF0F8EFAA
:0EFFEA007FF0E0EF7FF0C0EF7FF000EF00F05F
:08FFF800BEF7FCFFF3FBBFFBA9
:00000001FF
