:020000040000FA
:040000002AEF00F0F3
:1000080005829EA20AEF00F00CEF00F028EF00F046
:10001800022A9E921E0ECC6E3A0E0218D8A417EF32
:1000280000F019EF00F028EF00F0000E026E012832
:10003800D8A421EF00F023EF00F025EF00F0000E28
:10004800016E012A01C08CFF059211005AEF00F0E1
:10005800000E8C6E000E836E000E8B6E000E826E8C
:10006800000E956E94904CEC00F063EC00F0010EDD
:100078008B1A0B0E046E260E036E5E0EE82EFED74C
:10008800032EFCD7042EFAD73BEF00F02AEF00F03E
:1000980061EC00F01E0ECC6E9E0ECB6E780ECA126E
:1000A800CA829E92F28EF28C9D821200026A016AC6
:1000B8000590059200012CEF00F0CA941200CA8442
:0200C800120024
:08FFF800BEF7FCFFF3FBBFFBA9
:00000001FF
