:0400000038EF00F0E5
:06000800248244ED01F02A
:100018002480D8CF03F0E8CF04F0E0CF05F0F29CBD
:100028009EAA19EF00F01BEF00F02FEF00F08ABC3A
:1000380020EF00F023EF00F0010E24EF00F0000E97
:10004800FF0A026E023A024602468A500218BF0BA5
:1000580002188A6E9E9AF28C05C0E0FF04C0E8FF81
:1000680003C0D8FF249010007FEF01F0000E8A6EC5
:10007800939E939C93809382800E136E250E146E2C
:10008800000E156E000E166EFAEC00F081A04FEF10
:1000980000F051EF00F06FEF00F0A30E216E550E47
:1000A800E82EFED7212EFCD700F0232A8ABC5FEF6A
:1000B80000F062EF00F0010E63EF00F0000EFF0A9F
:1000C800216E213A214621468A502118BF0B21185A
:1000D8008A6E96EF00F081CF21F0D890213221A0CE
:1000E80078EF00F07AEF00F096EF00F0A30E216EA3
:1000F800550EE82EFED7212EFCD700F023068ABC29
:1001080088EF00F08BEF00F0010E8CEF00F0000E8E
:10011800FF0A216E213A214621468A502118BF0B39
:1001280021188A6E235062EC01F0030E226E8A0EAB
:10013800216E560EE82EFED7212EFCD7222EFAD796
:100148004AEF00F038EF00F0000E0E6E000E0F6E52
:10015800000E106E000E116E0A500B100C100D10D0
:10016800D8B4B9EF00F0BBEF00F0F1EF00F0010EEA
:10017800126EC5EF00F0D8900A360B360C360D36E5
:10018800122A0DAECAEF00F0CCEF00F0BFEF00F07E
:10019800D8900E360F36103611360A50065C0B50C2
:1001A80007580C5008580D500958D8A0DEEF00F039
:1001B800E0EF00F0E9EF00F00A50065E0B50075A36
:1001C8000C50085A0D50095A0E80D8900D320C3236
:1001D8000B320A32122ECCEF00F00EC006F00FC020
:1001E80007F010C008F011C009F0120013C017F092
:1001F80014C018F015C019F016C01AF0020ED890E5
:100208001736183619361A36E82E03EF01F017504C
:100218008008066E960E1854076E980E1954086ECC
:10022800000E1A54096E13C01BF014C01CF015C040
:100238001DF016C01EF0020ED8901B361C361D3657
:100248001E36E82E20EF01F01BC00AF01CC00BF090
:100258001DC00CF01EC00DF0A8EC00F006C01FF089
:1002680007C020F0AC84B8861FC0AFFF2050B06E26
:10027800AC98AC9CAB8E948C948EAB88AC8A1200F4
:100288000600F29E9EA84BEF01F04DEF01F05FEFE4
:1002980001F08ABE52EF01F055EF01F0010E56EF62
:1002A80001F0000EFF0A016E013201328A50011876
:1002B8007F0B01188A6EF28E24921100076EACA291
:1002C80068EF01F06AEF01F063EF01F007C0ADFFDE
:1002D8008ABE71EF01F074EF01F0010E75EF01F0C5
:1002E800000EFF0A066E063206328A5006187F0B89
:1002F80006188A6E1200236A2490249200013AEFAD
:0203080000F003
:020000040020DA
:08000000FFFFFFFFFFFFFFFF00
:020000040030CA
:0E000000FF02191EFF0181FF0FC00FE00F402D
:00000001FF
