:020000040000FA
:02000000EA2BE9
:10076A003F3406345B344F3466346D347C3407349A
:10077A007F346F34831686018312860183168501BE
:10078A00013083128500990119080C3E84008313F5
:10079A00000886000630980013309700AD309600A6
:1007AA00960BD52B970BD52B980BD52BDC2B013021
:1007BA0083129600160899071908803A763E031C98
:1007CA00E72BE82BC92BC82B0028B5238C00B623AE
:1007DA008D00B7238E00B8238F00B9239000BA2367
:1007EA009100BB239200BC239300BD239400BE2337
:0607FA0095008301BF2BF6
:02400E00F93F78
:00000001FF
