:020000040000FA
:020000000B28CB
:10000800CE00030E83128F000A0890000E280C28D9
:1000180083012D288B1C112812282028051406304E
:100028008E0013308D00AD308C008C0B19288D0B91
:1000380019288E0B19282028FE3083128C000C08F2
:1000480085058B1010088A000F0E8300CE0E4E0E09
:100058000900831286018501013083168600850117
:100068004A208312861406308312910011088606EE
:1000780003309300CB30920045309100910B422819
:10008800920B4228930B422837280B280B10831613
:0800980001138B170B16080081
:02400E00F93F78
:00000001FF
