:020000040000FA
:020000000B28CB
:10000800CE00030E83128C000A088D0038280C28B5
:100018008312900183011028831686010130850020
:10002800831286015520831205181B281C281728BF
:1000380007308F007D308E008E0B20288F0B2028F4
:100048008312051C28282928242801308E000E0830
:1000580090071F30890010088800831608154F2064
:100068008316881417280B288316081E3C283D2859
:1000780045281F3083128900831608148312080844
:1000880086008316081283120D088A000C0E83005E
:10009800CE0E4E0E0900553083168900AA3089000D
:0800A80008008B170B1708007C
:02400E00F93F78
:00000001FF
