:020000040000FA
:020000000A28CC
:10000800FE00030EF1000A08F20033280B285020E6
:10001800F60083010F288312031386018316031346
:1000280086018312031381010730831603138100AD
:100038008B178B160130F30073088312031386069F
:100048000B30F5002630F4005D30F300F30B2A285E
:10005800F40B2A28F50B2A2831281E280A280B1DFC
:100068003628372849280130F0007008F6070B11A8
:1000780010307606031D4128422849280830F00030
:100088007008831203138606F60172088A00710E3F
:0A0098008300FE0E7E0E0900013405
:02400E003A3F37
:00000001FF
