:020000040000FA
:0400000007EF00F016
:10000800038209ED00F050EF00F00600F2A40FEFB4
:1000180000F011EF00F026EF00F0014A022AF294F6
:100028004C0E011807E1260E0218D8A41EEF00F0A6
:1000380020EF00F026EF00F0000E026E000E016EB9
:10004800020E891A0392110043EC00F0000E896E2B
:10005800FC0E9216070EB4120F0EC1129580D58EA3
:1000680083A039EF00F03BEF00F03EEF00F089800D
:1000780034EF00F0899034EF00F007EF00F0D59EE0
:10008800D59AD58CD596D590D592D594D09EF28E0A
:10009800F28CF294F28A1200026A016A03900392C7
:0600A800000128EF00F04A
:020000040020DA
:08000000FFFFFFFFFFFFFFFF00
:020000040030CA
:0E000000000C1F1EFF8385FF0FC00FE00F4096
:00000001FF
