:0400000038EF00F0E5
:0600080006823AED00F053
:100018000680D8CF03F0E8CF04F0E0CF05F0F29CDB
:10002800F0A019EF00F01BEF00F02FEF00F08ABCF2
:1000380020EF00F023EF00F0010E24EF00F0000E97
:10004800FF0A026E023A024602468A500218BF0BA5
:1000580002188A6EF090F28C05C0E0FF04C0E8FF39
:1000680003C0D8FF069010006DEF00F00600F29E66
:10007800F2A241EF00F043EF00F056EF00F08ABE25
:1000880048EF00F04BEF00F0010E4CEF00F0000ECF
:10009800FF0A016E013201328A5001187F0B0118E4
:1000A8008A6EF292F28E0692110093809382939C4C
:1000B800939E8C9C8C9ED08EF28CF28EF292F18C58
:1000C800F288F090F18AF09CF08669EF00F038EF42
:0C00D80000F006900692000159EF00F0C5
:020000040020DA
:08000000FFFFFFFFFFFFFFFF00
:020000040030CA
:0E000000FF08191EFF0181FF0FC00FE00F4027
:00000001FF
