:04000000B6EF3FF028
:107F6C000001B9EF3FF0000E8A6E000E936EC00E4A
:107F7C009512010E8A6E83AEC6EF3FF0C8EF3FF04C
:107F8C00DFEF3FF07F0E8164CEEF3FF0D0EF3FF09C
:107F9C00D4EF3FF0010E8A6ED8EF3FF0020E8A024A
:107FAC00F3508A6E620E016E660EE82EFED7012E1D
:107FBC00FCD783ACE4EF3FF0E6EF3FF0FBEF3FF094
:107FCC00020E8160ECEF3FF0EEEF3FF0F2EF3FF08E
:107FDC00800E8A6EF4EF3FF0D8908A32620E016EFA
:107FEC00660EE82EFED7012EFCD700F0C1EF3FF055
:047FFC0000EF00F0A2
:020000040020DA
:08000000FFFFFFFFFFFFFFFF00
:020000040030CA
:0E000000FF08191EFF0384FF0FC00FE00F4022
:00000001FF
