:020000040000FA
:10000000EE2F00308A000408840A820700340A3484
:02001000233497
:100EEA000134023404340834103420344034803459
:100EFA00831203138601831603138601FB017B0801
:100F0A00703E840000088312031386007230F900D1
:100F1A00A130F800F80B8F2FF90B8F2F942F073081
:100F2A007B06031D992F9A2F9B2FA72F831203133A
:100F3A0086012130F9007630F800F80BA22FF90B60
:100F4A00A22F00000130F8007808FB077B08803ADE
:100F5A00783E031CB12FB22F842F7230F900A130D2
:100F6A00F800F80BB62FF90BB62FBB2F0730F80095
:100F7A007808FA007A08703E840000088312031386
:100F8A0086007230F900A130F800F80BCA2FF90B6D
:100F9A00CA2FCF2F8312031386012130F90076302E
:100FAA00F800F80BD62FF90BD62F0000FF30F80007
:100FBA007808FA07FA1FE22FE32FBF2F7230F900E1
:100FCA00A130F800F80BE72FF90BE72FEC2F832F4E
:100FDA0000287527F0007627F1007727F200782796
:100FEA00F3007927F4007A27F5007B27F6007C279F
:060FFA00F70083017D2FCA
:02400E003A3F37
:00000001FF
