:0400000038EF00F0E5
:06000800778260ED0BF0B1
:100018007780D8CF03F0E8CF04F0E0CF05F0F29C6A
:100028009EAA19EF00F01BEF00F02FEF00F08ABC3A
:1000380020EF00F023EF00F0010E24EF00F0000E97
:10004800FF0A026E023A024602468A500218BF0BA5
:1000580002188A6E9E9AF28C05C0E0FF04C0E8FF81
:0C00680003C0D8FF779010007EEF0BF073
:0B060000003078253032780A0D000031
:10060C004AC0D9FF4BC0DAFFDECFF6FFDDCFF7FFD4
:10061C000800F550250AD8A416EF03F018EF03F0E4
:10062C00ACEF04F04AC0D9FF4BC0DAFFDE2A000E53
:10063C00DD22000E716E000E706E70C074F071C011
:10064C0075F072687368000E5C6E000E5B6E75EF71
:10065C0003F074804AC0D9FF4BC0DAFFDE2A000ECB
:10066C00DD2275EF03F0748230EF03F0748430EF09
:10067C0003F0748630EF03F0748830EF03F0000E53
:10068C005C6E010E5B6E75EF03F04AC0D9FF4BC078
:10069C00DAFFDECFF6FFDDCFF7FF0800F5504E6E28
:1006AC004F6A4F50000AD8B45EEF03F045EF03F0E9
:1006BC004E50200AD8B43FEF03F0030AD8B442EFEF
:1006CC0003F0080AD8B43CEF03F0060AD8B42FEFB5
:1006DC0003F01D0AD8B439EF03F045EF03F05B507B
:1006EC005C10D8B47CEF03F07EEF03F04BEF03F01B
:1006FC0074A083EF03F085EF03F086EF03F07492A0
:10070C004AC0D9FF4BC0DAFFDECFF6FFDDCFF7FFD3
:10071C000800F5502A0AD8A496EF03F098EF03F0DE
:10072C00C1EF03F04AC0D9FF4BC0DAFFDE2A000E3E
:10073C00DD224CC0D9FF4DC0DAFFDFCF4EF0020EE8
:10074C00DE26DFCF4FF0000EDD224EC0D9FF4FC0AA
:10075C00DAFFDECF70F0DDCF71F071BEBAEF03F0CF
:10076C00B8EF03F004EF04F07480706C711ED8B015
:10077C00712A04EF04F04AC0D9FF4BC0DAFFDECF78
:10078C000DF0DDCF0EF032EC06F00DC070F00EC0A7
:10079C0071F0D8EF03F04AC0D9FF4BC0DAFFDE2A64
:1007AC00000EDD22D00E4E6EFF0E4F6E4AC0D9FFEA
:1007BC004BC0DAFFDECFF6FFDDCFF7FF0800F550B8
:1007CC00506E516A4E5050264F50512251500AE1F2
:1007DC000A0E505CD8A0F5EF03F0F8EF03F0010E11
:1007EC00F9EF03F0000E5D6E5E6A5D505E10D8A4EA
:1007FC0002EF04F004EF04F0D1EF03F04AC0D9FF8C
:10080C004BC0DAFFDECFF6FFDDCFF7FF0800F55067
:10081C00780AD8B414EF04F016EF04F028EF04F0C3
:10082C004AC0D9FF4BC0DAFFDECFF6FFDDCFF7FFB2
:10083C000800F550580AD8A426EF04F028EF04F06D
:10084C0076EF04F04AC0D9FF4BC0DAFFDECFF6FFDB
:10085C00DDCFF7FF0800F5CF5AF04AC0D9FF4BC0E7
:10086C00DAFFDE2A000EDD224CC0D9FF4DC0DAFFC4
:10087C00DFCF4EF0020EDE26DFCF4FF0000EDD2272
:10088C004EC0D9FF4FC0DAFFDECF50F0DDCF51F0B4
:10089C0050C052F051C053F0546A556A566A576AA8
:1008AC00586A596A48C021F049C022F052C023F05E
:1008BC0053C024F054C025F055C026F056C027F084
:1008CC0057C028F058C029F059C02AF05AC02BF054
:1008DC00C8EC04F021C048F022C049F0C7EF04F086
:1008EC004AC0D9FF4BC0DAFFDECFF6FFDDCFF7FFF2
:1008FC000800F550250AD8A486EF04F088EF04F020
:10090C009FEF04F04AC0D9FF4BC0DAFFDE2A000E7D
:10091C00DD22000E076E250E066E48C008F049C099
:10092C0009F0FAEC06F0000E496E010E486EC7EFA6
:10093C0004F04AC0D9FF4BC0DAFFDE2A000EDD22DC
:10094C00000E496E000E486EC7EF04F04AC0D9FF86
:10095C004BC0DAFFDECFF6FFDDCFF7FF0800F55016
:10096C00066E076A48C008F049C009F0FAEC06F0B8
:10097C004AC0D9FF4BC0DAFFDE2A000EDD2299EF08
:10098C0004F0120073BECDEF04F0CFEF04F0D0EF03
:10099C0004F0749273BEDDEF04F0735006E1720440
:1009AC00D8B0DBEF04F0DDEF04F0E3EF04F0000E61
:1009BC00396E010E386EE7EF04F072C038F073C078
:1009CC0039F070C03AF071C03BF074A8F0EF04F04D
:1009DC00F2EF04F0F6EF04F0FE0E3A26FF0E3B2287
:1009EC0023C03CF024C03DF025C03EF026C03FF0B3
:1009FC0027C040F028C041F029C042F02AC043F083
:100A0C00000E456E1F0E446E000E0001A26FC2EF69
:100A1C0005F04406D8A045060F0E3C14466E476AF6
:100A2C0047BE22EF05F0475009E10A0E465CD8A0FC
:100A3C0022EF05F024EF05F02CEF05F0570E4624BD
:100A4C00466E000E4720476E32EF05F0300E4624FE
:100A5C00466E000E4720476EBF0E2C6EFF0E2D6E9D
:100A6C002B502E6E2F6A2C502E262D502F222F50AD
:100A7C000AE11A0E2E5CD8A046EF05F049EF05F0FE
:100A8C00010E4AEF05F0000E346E356A3450351005
:100A9C00D8B453EF05F055EF05F085EF05F09F0E38
:100AAC002C6EFF0E2D6E200E46102E6E000E471073
:100ABC002F6E2C502E262D502F222F500AE11A0E5D
:100ACC002E5CD8A06CEF05F06FEF05F0010E70EF07
:100ADC0005F0000E366E376A36503710D8B479EF01
:100AEC0005F07BEF05F085EF05F046C00CF047C034
:100AFC000DF077EC0AF00CC046F00DC047F0830EF9
:100B0C004424D96E000E4520DA6E46C0DFFF38064D
:100B1C00D8A039063A06D8A03B063CC02CF03DC004
:100B2C002DF03EC02EF03FC02FF040C030F041C041
:100B3C0031F042C032F043C033F0050EAFEF05F098
:100B4C00D89033323232313230322F322E322D3283
:100B5C002C32E82EA6EF05F02CC03CF02DC03DF059
:100B6C002EC03EF02FC03FF030C040F031C041F0FD
:100B7C0032C042F033C043F045BECEEF05F04550D5
:100B8C0009E1020E445CD8A0CEEF05F0D0EF05F0E1
:100B9C0000EF06F03C503D103E103F10401041104D
:100BAC0042104310D8A4DDEF05F0DFEF05F00FEF96
:100BBC0005F039BEECEF05F0395006E13804D8B039
:100BCC00EAEF05F0ECEF05F00FEF05F03BBEF7EFA9
:100BDC0005F03B5008E13A04D8A0F7EF05F0F9EF27
:100BEC0005F000EF06F074B2FEEF05F000EF06F032
:100BFC000FEF05F074A805EF06F007EF06F01DEFF8
:100C0C0006F04406D8A04506830E4424D96E000E87
:100C1C004520DA6E2BC0DFFF4406D8A04506830EB4
:100C2C004424D96E000E4520DA6E300EDF6E21C0E2
:100C3C0016F022C017F0830E4424186E000E4520C7
:100C4C00196E3AC01AF03BC01BF0C1EC07F016C08D
:100C5C0021F017C022F01200000E1B6E000E1A6E4F
:100C6C00000E146E000E136E3EEF06F00D4A0E2AA7
:100C7C00010E196E0DC0F6FF0EC0F7FF0800F550FF
:100C8C00200AD8B44CEF06F04EEF06F06BEF06F0EE
:100C9C00F70E0F6EFF0E106E0DC0F6FF0EC0F7FFB5
:100CAC000800F550116E126A0F50112610501222C6
:100CBC00125009E1050E115CD8A067EF06F069EF40
:100CCC0006F06BEF06F0000E196E19C015F0166ADF
:100CDC0015501610D8A475EF06F077EF06F03CEF20
:100CEC0006F081EF06F0000E146E010E136E0D4A25
:100CFC000E2AB6EF06F00DC0F6FF0EC0F7FF080087
:100D0C00F5500F6E106A1050000AD8B490EF06F030
:100D1C00B6EF06F00F502B0AD8B47DEF06F0060A9A
:100D2C00D8B479EF06F0B6EF06F01AC006F01BC087
:100D3C0007F0000E096E0A0E086E21EC0CF00DC0C7
:100D4C00F6FF0EC0F7FF0800F550065E000E075ABE
:100D5C00300E06241A6E000E07201B6E7DEF06F077
:100D6C00D00E0F6EFF0E106E0DC0F6FF0EC0F7FF0B
:100D7C000800F550116E126A0F50112610501222F5
:100D8C0012500AE10A0E115CD8A0CFEF06F0D2EF98
:100D9C0006F0010ED3EF06F0000E176E186A17500E
:100DAC001810D8A4DCEF06F0DEEF06F09BEF06F08F
:100DBC0013501410D8A4E5EF06F0E7EF06F0F5EFAA
:100DCC0006F01AC00FF01BC010F00F1E101E0F4AB9
:100DDC00102A0FC00DF010C00EF0F9EF06F01AC07B
:100DEC000DF01BC00EF0120008500910D8B401EF22
:100DFC0007F003EF07F00CEF07F008500910D8A428
:100E0C000AEF07F00CEF07F011EF07F0065054EC67
:100E1C000CF05EEF07F020EE04F00850D9260950D4
:100E2C00DA22DE50DE10D8B41EEF07F020EF07F008
:100E3C003BEF07F020EE04F00850D9260950DA22D7
:100E4C0010EE02F00850E1260950E222DE50E65C7A
:100E5C00E650800A0E6EDE50800A0E58D8B039EF7C
:100E6C0007F03BEF07F05EEF07F020EE02F00850C2
:100E7C00D9260950DA22DECF0AF0DDCF0BF008C0FC
:100E8C00D9FF09C0DAFFDECF0CF0DDCF0DF00A5030
:100E9C000C24D96E0B500D20DA6E06C0DFFF20EE4D
:100EAC0002F00850D9260950DA22DE2A000EDD2283
:100EBC001200000E0B6E09BE68EF07F066EF07F02C
:100ECC006EEF07F0086C091ED8B0092A010E0B6EE4
:100EDC0007BE75EF07F073EF07F07BEF07F0066CBA
:100EEC00071ED8B0072A010E0B1A000E0D6E000E4D
:100EFC000C6E08500910D8B486EF07F088EF07F095
:100F0C00B0EF07F0010E0A6E90EF07F0D89008369C
:100F1C0009360A2A09AE95EF07F097EF07F08CEF28
:100F2C0007F0D8900C360D360850065C095007585F
:100F3C00D8A0A3EF07F0A5EF07F0AAEF07F0085031
:100F4C00065E0950075A0C80D890093208320A2ED6
:100F5C0097EF07F00B50D8B4B6EF07F0B8EF07F0E7
:100F6C00BCEF07F00C6C0D1ED8B00D2A0CC006F0AF
:100F7C000DC007F0120074A0C6EF07F0C8EF07F021
:100F8C00D2EF07F018C00FF019C010F016C011F016
:100F9C0017C012F020EC0BF01BBED7EF07F0D9EF07
:100FAC0007F0DFEF07F01AC01FF01BC020F0E3EFD3
:100FBC0007F0000E206E000E1F6E000E1E6E000E4F
:100FCC001D6EF5EF07F0000E076E200E066E16C0B4
:100FDC0008F017C009F0FAEC06F01D4A1E2A1F5043
:100FEC001D5C1E50800A1C6E2050800A1C58D8A014
:100FFC0002EF08F004EF08F0E9EF07F074B009EF26
:10100C0008F00BEF08F015EF08F018C00FF019C03E
:10101C0010F016C011F017C012F020EC0BF018C035
:10102C0006F019C007F0EFEC0BF01F500624166EFB
:10103C0020500720176E120050EC0CF0000E136EAF
:10104C00D00E126E47EC0CF0000E136E000E126EEA
:10105C0047EC0CF0000E0F6E000E0E6EF8EC0AF062
:10106C000EC012F00FC013F047EC0CF0000E0F6E18
:10107C000E0E0E6EF8EC0AF00EC012F00FC013F04C
:10108C0047EC0CF0000E0F6E0F0E0E6EF8EC0AF023
:10109C000EC012F00FC013F047EC0CF0000E136EE4
:1010AC00010E126E47EC0CF0000E0F6E110E0E6E50
:1010BC00F8EC0AF00EC012F00FC013F047EC0CF075
:1010CC00000E0F6E0A0E0E6EF8EC0AF00EC012F047
:1010DC000FC013F047EC0CF0000E0F6E150E0E6ED9
:1010EC00F8EC0AF00EC012F00FC013F047EC0CF045
:1010FC004CEC0CF01200800E1F6E250E206E000EB4
:10110C00216E000E226E87EC09F0640E1F6E000E2D
:10111C00206E000E216E000E226ED1EC09F0030E33
:10112C006E6E8A0E6D6E560EE82EFED76D2EFCD7A7
:10113C006E2EFAD722EC08F050EC0CF0000E136E69
:10114C00D00E126E47EC0CF0000E136E010E126EE8
:10115C0047EC0CF04CEC0CF050EC0CF0000E136E59
:10116C00D10E126E47EC0CF0010E0AEC0CF06F6E07
:10117C004CEC0CF0000E676E010E686E010E696E81
:10118C00060E6A6E6FC06BF06C6AA6EC0AF01A0E53
:10119C006E6E5E0E6D6E6E0EE82EFED76D2EFCD74B
:1011AC006E2EFAD700D0A2EF08F038EF00F0000E48
:1011BC000B6E07BEE6EF08F0E4EF08F0ECEF08F07A
:1011CC00066C071ED8B0072A010E0B6E09BEF3EF92
:1011DC0008F0F1EF08F0F7EF08F0086C091ED8B032
:1011EC00092A08500910D8B4FEEF08F000EF09F0F6
:1011FC0024EF09F0010E0A6E08EF09F0D8900836BA
:10120C0009360A2A09AE0DEF09F00FEF09F004EFC9
:10121C0009F00850065C09500758D8A018EF09F0DF
:10122C001AEF09F01EEF09F00850065E0950075A34
:10123C00D890093208320A2E0FEF09F00B50D8B4AF
:10124C002AEF09F02CEF09F030EF09F0066C071EBD
:10125C00D8B0072A06C006F007C007F01200000E2F
:10126C001A6E000E1B6E000E1C6E000E1D6E1650BC
:10127C00171018101910D8B446EF09F048EF09F000
:10128C007EEF09F0010E1E6E52EF09F0D890163663
:10129C001736183619361E2A19AE57EF09F059EFC2
:1012AC0009F04CEF09F0D8901A361B361C361D3657
:1012BC001650125C175013581850145819501558D2
:1012CC00D8A06BEF09F06DEF09F076EF09F016502E
:1012DC00125E1750135A1850145A1950155A1A8076
:1012EC00D89019321832173216321E2E59EF09F0D7
:1012FC001AC012F01BC013F01CC014F01DC015F066
:10130C0012001FC023F020C024F021C025F022C001
:10131C0026F0020ED8902336243625362636E82EB3
:10132C0090EF09F023500008126E2D0E2454136E0A
:10133C00310E2554146E010E2654156E1FC027F065
:10134C0020C028F021C029F022C02AF0020ED8902B
:10135C002736283629362A36E82EADEF09F027C075
:10136C0016F028C017F029C018F02AC019F035EC77
:10137C0009F012C02BF013C02CF0AC84B8862BC033
:10138C00AFFF2C50B06EAC98AC9CAB8E948C948E02
:10139C00AB88AC8A120094869488280EC66E000E18
:1013AC00C56E000E126E2D0E136E310E146E010EE4
:1013BC00156E1FC023F020C024F021C025F022C0E0
:1013CC0026F0020ED8902336243625362636E82E03
:1013DC00E8EF09F023C006F024C007F025C008F0A0
:1013EC0026C009F0640E0A6E000E0B6E000E0C6E19
:1013FC00000E0D6E11EC0AF006C016F007C017F0C7
:10140C0008C018F009C019F035EC09F01204C86EC8
:10141C00000EC76E1200000E0E6E000E0F6E000E48
:10142C00106E000E116E06A01EEF0AF020EF0AF0EF
:10143C0028EF0AF00A500E260B500F220C501022E7
:10144C000D501122D8900A360B360C360D36D8902A
:10145C0009320832073206320650071008100910FC
:10146C00D8A43BEF0AF03DEF0AF019EF0AF00EC0DA
:10147C0006F00FC007F010C008F011C009F0120000
:10148C0061C065F062C066F0000E0001816F000E55
:10149C00806F64EF0AF05FC048F060C049F0650EE1
:1014AC004A6E000E4B6E63C04CF064C04DF006ECFF
:1014BC0003F04850000180274950812365C0F6FF96
:1014CC0066C0F7FF0800F5500009D8A470EF0AF0C9
:1014DC0072EF0AF051EF0AF080C05FF081C060F04B
:1014EC0012009F0E0E6EFF0E0F6E0CC010F00DC092
:1014FC0011F00E5010260F50112211500AE11A0E45
:10150C00105CD8A08CEF0AF08FEF0AF0010E90EF70
:10151C000AF0000E126E136A12501310D8B499EF21
:10152C000AF09BEF0AF0A1EF0AF05F0E0C140C6EA0
:10153C000D6AA5EF0AF00CC00CF00DC00DF01200F6
:10154C006B0E0001A36F000EA46F67C0A5F068C0FE
:10155C00A6F0000EA86F000EA76F000EAA6F000E6B
:10156C00A96FA50E5F6E000E606E69C061F06AC057
:10157C0062F0A30E636E000E646E46EC0AF000017E
:10158C00A7516724D96EA8516820DA6E000EDF6E61
:10159C001200010E0C6E200E06180710D8B4D9EFED
:1015AC000AF0DBEF0AF0F4EF0AF0F70E086EFF0E0C
:1015BC00096E06C00AF007C00BF008500A26095045
:1015CC000B220B5009E1050E0A5CD8A0F0EF0AF0D3
:1015DC00F2EF0AF0F4EF0AF0000E0C6E0CC006F0FD
:1015EC00076A12000EC006F00FC007F0000E096E5D
:1015FC000A0E086E5FEC07F006C010F007C011F081
:10160C00103A113AF00E111610500F0B1112F00E79
:10161C0010160EC006F00FC007F0000E096E0A0E71
:10162C00086EDDEC08F0065010240E6E07501120E9
:10163C000F6E1200000E156E000E146E31EF0BF0D3
:10164C0013C006F0076A11C008F012C009F0FAECDA
:10165C0006F0144A152A14500F24D96E1550102078
:10166C00DA6EDF50136E1350D8A43FEF0BF041EF3E
:10167C000BF026EF0BF012009F0E086EFF0E096E9A
:10168C00200E06100A6E000E07100B6E08500A266C
:10169C0009500B220B500AE11A0E0A5CD8A059EF24
:1016AC000BF05CEF0BF0010E5DEF0BF0000E066E15
:1016BC00076A12000600F29E9EA867EF0BF069EF16
:1016CC000BF07BEF0BF08ABE6EEF0BF071EF0BF0B3
:1016DC00010E72EF0BF0000EFF0A016E01320132A7
:1016EC008A5001187F0B01188A6EF28E77921100C6
:1016FC0001EE00F011EE00F0EE6AE550E150FCE175
:10170C00E250FAE100EE80F0230EEE6AE806FDE10D
:10171C0000EE70F0070EEE6AE806FDE17790779226
:10172C00000EF86E000181EF08F09F0E086EFF0EA0
:10173C00096E06C00AF007C00BF008500A260950C3
:10174C000B220B500AE11A0E0A5CD8A0B0EF0BF07A
:10175C00B3EF0BF0010EB4EF0BF0000E066E076A40
:10176C001200BF0E086EFF0E096E06C00AF007C00D
:10177C000BF008500A2609500B220B500AE11A0EE6
:10178C000A5CD8A0CCEF0BF0CFEF0BF0010ED0EF32
:10179C000BF0000E066E076A1200D00E086EFF0EDC
:1017AC00096E06C00AF007C00BF008500A26095053
:1017BC000B220B500AE10A0E0A5CD8A0E8EF0BF0E2
:1017CC00EBEF0BF0010EECEF0BF0000E066E076A60
:1017DC00120006C008F007C009F0F7EF0BF0064A3C
:1017EC00072A06C0D9FF07C0DAFFDF50D8A401EFE3
:1017FC000CF003EF0CF0F5EF0BF00850065C066EE6
:10180C0009500758076E1200076E34EC0CF0C586B1
:10181C0034EC0CF0C9CF08F034EC0CF00750D8B411
:10182C001AEF0CF01DEF0CF0C58A1EEF0CF0C59AE8
:10183C00C5880850120006500802F3CF0AF0F4CF06
:10184C000BF006500902F3500B2607500802F35018
:10185C000B260AC006F00BC007F01200C5CF06F02D
:10186C001F0E0616D8A43DEF0CF03FEF0CF034EF32
:10187C000CF0C7B444EF0CF046EF0CF034EF0CF066
:10188C00120034EC0CF012C0C9FF120034EC0CF056
:0E189C00C584120034EC0CF0C580120012005E
:020000040020DA
:08000000FFFFFFFFFFFFFFFF00
:020000040030CA
:0E000000FF02191EFF0385FF0FC00FE00F4027
:00000001FF
